:020000040800F2
:1000000080740020DD010008E1010008E301000820
:10001000E5010008E7010008E90100080000000010
:10002000000000000000000000000000EB010008DC
:10003000ED01000800000000EF010008F1010008D8
:10004000F3010008F3010008F3010008F3010008C0
:10005000F3010008F3010008F3010008F3010008B0
:10006000F3010008F3010008F3010008F3010008A0
:10007000F3010008F3010008F3010008F301000890
:10008000F3010008F3010008F3010008F301000880
:10009000F3010008F3010008F3010008F301000870
:1000A000F3010008F3010008F3010008F301000860
:1000B000F3010008A1100008F3010008F301000893
:1000C000F3010008F3010008F3010008F301000840
:1000D000F3010008F3010008F3010008F301000830
:1000E000F3010008F3010008F301000800F002F832
:1000F00000F062F80AA090E8000C82448344AAF160
:100100000107DA4501D100F057F8AFF2090EBAE85D
:100110000F0013F0010F18BFFB1A43F0010318473B
:10012000744B0100944B01000A444FF0000C10F88E
:10013000013B13F0070408BF10F8014B1D1108BF65
:1001400010F8015B641E05D010F8016B641E01F805
:10015000016BF9D113F0080F1EBF10F8014BAD1C55
:100160000C1B09D16D1E58BF01F801CBFAD505E073
:1001700014F8016B01F8016B6D1EF9D59142D6D3CD
:10018000704700000023002400250026103A28BFF5
:1001900078C1FBD8520728BF30C148BF0B607047F9
:1001A00064290FF0AB8478290FF0E48400207047B5
:1001B0001FB51FBD10B510BD0FF054FF1146FFF75E
:1001C000F7FF00F025F80FF072FF03B4FFF7F2FF1E
:1001D00003BC00F00DFD000030BF000008480047E0
:1001E000FEE7FEE7FEE7FEE7FEE7FEE7FEE7FEE7E7
:1001F000FEE7FEE703480449024A044B704700004B
:10020000ED00000880220020807400208022002061
:1002100010B5092000F091FC482000F023FB4FF4BA
:100220001651482000F0F3FC00F054FD0AF04DFE9A
:1002300000F0CFFD094809F081F84FF47A714720AA
:1002400000F03DFF6FF07F4007F004FD042007F051
:10025000E7FC00F0D6F8002010BD0000D42E010805
:1002600070B59448B0F9000003F0ECFEC5B22C461E
:1002700007E021468F48B0F9000003F080FE601EC1
:1002800084B2002CF5DC00218A48B0F9000003F0AC
:1002900076FE00240AE0002004EB8401864A22F85E
:1002A0001100864941F82400601C84B2844800682B
:1002B0008442F0D364200BF04FF97E48B0F900007F
:1002C00003F0C0FEC5B200207D49086070BD3EB598
:1002D000044604EB8400784931F8102079A168467F
:1002E0000FF0C4FB6B46224600217248B0F90000B3
:1002F00003F0C5FE714850F8242074A168460FF041
:10030000B5FB6B46224601216A48B0F9000003F0B4
:10031000B6FE002514E004EB8400674901EB4000C1
:10032000801C425D67A168460FF0A0FB6B46224629
:10033000A91C6048B0F9000003F0A1FE681CC5B21A
:10034000082DE8DB3EBD70B50546002401E0601CC9
:1003500084B25B480068844207D2288804EB840199
:10036000554A32F811108842F1D15548006884424C
:1003700031D153480068642803D3012054490870E0
:100380003EE004EB84004C4901EB40002968016029
:10039000696841602989018149480068401C4849D1
:1003A00008604448B0F9000003F04CFE4449096875
:1003B000884205D200213F48B0F9000003F063FDF8
:1003C0003E4850F82400401C3C4941F82400E0B26B
:1003D000FFF77DFF14E004EB8400374901EB400098
:1003E000296801606968416029890181334850F8B2
:1003F0002400401C314941F82400E0B2FFF767FFB8
:1004000070BD0EB530208DF800000AF01CFF0020F2
:1004100008F05EFF00F0F6F904462FE064200BF0D0
:100420009BF808F025FB2B480078401C29490870F0
:10043000084600780A2821DB00200870264800883A
:10044000401C254908802548007820B1002224A1BD
:10045000254804F048FF204606F0D4FF0546002357
:100460006422194607F055FD2048006818B10020A5
:100470001E49086002E001201C490860CEE71C48C4
:100480000078401C1A49087008460078082801DBEB
:10049000002008701648007870471048007818B19E
:1004A00000200E49087002E001200C4908700B483A
:1004B000007870476E00002098020020800600201F
:1004C00068000020307825780000000025640000D6
:1004D0006400002070000020000000206D0000205B
:1004E0004552524F52000000484B01089C0000202A
:1004F0006C0000202DE9FE43044620680F2808D038
:100500001E2807D026287DD0A0F2131000287AD10B
:1005100063E174E1B4F9040040F6010106F0ABFFB9
:1005200080460E21404604F0D0FF4FF04011404677
:1005300004F0DAFFB4F9040040F6030106F09BFF73
:100540008046B8A1404601F0F0FC0022012140465F
:1005500001F0D3FCB4F9040040F6040106F08BFF6F
:100560008046B2A1404601F0E0FC0E21404601F079
:10057000C2FD00220121404601F0BFFCB4F9040095
:1005800040F6050106F077FF8046B4F9040040F616
:10059000070106F070FF8046A4A1404601F0C5FCAB
:1005A0000E21404601F0A7FDB4F9040040F6080111
:1005B00006F061FF80469DA1404601F0B6FC0E2189
:1005C000404601F098FDB4F9040040F60C0106F035
:1005D00052FF804696A1404601F0A7FC002201216F
:1005E000404601F08AFCB4F9040040F6130106F01D
:1005F00042FF80460020ADF80600ADF80800ADF8D7
:10060000040001E04CE0E4E08BA000906946404625
:1006100004F012FD0020ADF80600ADF80800ADF8BA
:10062000040087A000906946404604F005FD0020C4
:10063000ADF80600ADF80800ADF8040082A0009007
:100640006946404604F0F8FCB4F9040040F6150190
:1006500006F011FF80460021404604F045FFB4F942
:10066000040040F6160106F006FF804600214046D1
:1006700004F03AFFB4F9040040F6170106F0FBFE5F
:1006800080460021404604F02FFFB4F9040006F034
:10069000B9FE814600236422194607F03AFCAEE019
:1006A000B4F9060006F007FF0746A56840F60C01FE
:1006B000781A8F4241D009DCA7F6030068B10128FF
:1006C00017D0042821D0052812D12AE0062840D0CE
:1006D000072857D00C287AD160E0012D04D0022DD4
:1006E00003D0052D03D101E001E000E000BF00BF11
:1006F0006DE0012D04D0022D03D0052D03D101E0C2
:1007000001E000E000BF00BF61E0012D04D0022D38
:1007100003D0052D03D101E001E000E000BF00BFE0
:1007200055E0012D04D0022D03D0052D03D101E0A9
:1007300001E000E000BF00BF49E0012D04D0022D20
:1007400003D0052D03D101E001E000E000BF00BFB0
:100750003DE0012D02D0022D12D110E0FFF78FFEF7
:100760000646B4F9040040F6120106F084FE804605
:10077000374850F82610404600F05EFE00E000BF0B
:1007800000BF24E0012D04D0022D03D0052D03D19C
:1007900001E001E000E000BF00BF18E0012D02D041
:1007A000022D12D110E0FFF778FE0646B4F90400DE
:1007B00040F6180106F05FFE8046264850F82610E5
:1007C000404600F039FE00E000BF00BF00BF00BFA0
:1007D00015E0204606F062FA11E01F48006818B1E3
:1007E00000201D49086002E001201B490860B4F99F
:1007F000040006F007FE814607F080F800BF00BF46
:10080000BDE8FE837CB506F00BFE05460020009097
:100810002B46124A13210190114800F0D0FE0446E5
:1008200020467CBD43303035330000003132330088
:100830004143503036330000536574696E670000E1
:10084000456469746500000048454C500000000094
:1008500074000020940000209C000020F504000893
:10086000C40A01084FF0E021096921F004014FF0AA
:10087000E0221161C21700EB5272C2F3C702234B90
:100880001A701946097801EB4102C2EBC1114FF60B
:10089000FF7202EAC1011E4A1180704701461C4ADC
:1008A00012884A434FF0E0235A6100229A610122E4
:1008B0001A6100BF4FF0E022106900F001021AB186
:1008C00000F48032002AF5D000224FF0E0231A61B4
:1008D0009A61704701460D4A12784A434FF0E0236F
:1008E0005A6100229A6101221A6100BF4FF0E02292
:1008F000106900F001021AB100F48032002AF5D02C
:1009000000224FF0E0231A619A617047A000002096
:10091000A2000020AA4A0A400243AA4B1A6070476C
:100920000146072323EA01021202A64B1B1D186889
:100930004FF6FF031840A44B18431043A14B1B1D57
:10094000186070472DE9F0478046894614461D46D9
:100950002046E11704EB9171C1F3870AE11704EB1C
:1009600091718910A4EB8101CFB2042000EBC70084
:10097000C7B22846FFF7D4FFC5F1040008FA00F615
:100980000F20284100EA0900064306F00F06202C3C
:1009900009DA8E4801680120A04001434FF0E020B1
:1009A000C0F800110BE08948001D0068A4F1200187
:1009B00001228A4010434FF0E021C1F8040184482D
:1009C00050F82A0006FA07F10843814941F82A0045
:1009D000BDE8F08770B504460B46CE1701EB96765E
:1009E000C6F38700CE1701EB9676B610A1EB86060C
:1009F000B606350E774B9B6943F00103754EB36124
:100A00004FEAB63353F820300F26AE40B343724E50
:100A100046F82030334653F8203004FA05F61E43DA
:100A20006D4B43F820606D4B1B6801268E403343AD
:100A30006A4E336002F0010343B1684B0C331B680C
:100A400001268E403343654E0C36336002F00203BC
:100A500043B1624B08331E6801238B401E435F4B3A
:100A600008331E6070BD00B500205A490861C86097
:100A70001420486100208861C8610846006840F081
:100A800001000860084640685549084051494860DF
:100A900008460068534908404E4908600846006807
:100AA00020F4802008600846406820F4FE0048607A
:100AB0000020886000214FF00060FFF72BFF00BD91
:100AC00010B540480830006840F004003D49083146
:100AD00008604048C06940F080503E49C8614248C3
:100AE000406840F48070404948600846006840F023
:100AF000040008600846006840F002000860FFF744
:100B00006BFB10BD3048001D2E49091D0860704761
:100B1000014649062F4A926942F001022D4B9A6123
:100B20002D4A083A526822F0E0622B4B083B5A608B
:100B30001A4652680A435A60704730B50446002589
:100B4000FFF791FF2348006840F480302149086096
:100B500000BF20480068400C0028FAD04FF48060A5
:100B60001C494860A01EC4B20846406840EA844060
:100B700048600846406840F4803048601B48006880
:100B800040F03200194908601248006840F0807057
:100B90001049086000BF0F480068400E0028FAD0D6
:100BA0000C48406840F002000A49486005E00948E6
:100BB0004068C0F3870505F00305022DF7D130BD6D
:100BC00080FFFF1F08ED00E00000FA0500E100E0F3
:100BD00000E400E000100240080001400004014071
:100BE0000000FFF8FFFFF6FE00700040002002400A
:100BF000014600BF704700BF324A128802F040022F
:100C0000002AF9D0C2B22F4B1B1D1A8070472DE964
:100C1000F05F05460E4630010FF0F4FD81462A498B
:100C200005FB01F00FF0EEFD824649460FF008FD8E
:100C3000074638460FF0C6FD84B220460FF0E2FDAD
:100C4000834639460FF0BEFE82464FF083410FF0D7
:100C5000EDFD81460FF0B6FD80464FF6FF7000EACD
:100C6000041404EB080084B21848806940F00400C2
:100C7000164988610846806940F4804088611448BC
:100C8000006820F47F60124908600846006840F45C
:100C90000B6008600D48C06840F480400B49C86094
:100CA0000846C06820F48040C860064808300480C8
:100CB000001D008842F20C01084302490C310880F3
:100CC000BDE8F09F0038014040420F000010024094
:100CD000040801401848806940F004001649886102
:100CE0000846806940F0200088611448006820F0C0
:100CF0000F00124908600846006840F003000860D1
:100D00000E480830006840F480700C4908310860D3
:100D10000B48006820F470600949086008460068C4
:100D200040F44070086006480C30006840F0040051
:100D300003490C310860704700100240040801406C
:100D40000014014010B50023CD4C2360002116E0B3
:100D500000F0800222B90023C94C0C34236003E068
:100D60000123C74C0C3423604306180E0023C44CE7
:100D700023600123C34CC4F880314B1CD9B208292D
:100D8000E6DB10BD70B50620FFF7A4FD0120BC49CD
:100D900008600020BB49C1F88001002514E04FF62F
:100DA000FF7000EA44040120B5490860FFF792FD96
:100DB0000020B449C1F88001B1487838006808B112
:100DC000601C84B2681CC5B2102DE8DB24112046DB
:100DD00070BD0020AA490860AB48806940F010004F
:100DE000A9498861A94800686FF30F00A749086006
:100DF0000846006843F683010843A4490860084692
:100E0000406820F4700048600846406840F4401094
:100E1000486001209B49C1F8B40199490C31086030
:100E200097490860002096493431086070472DE9E1
:100E3000F04F85B081460C4692469020FFF782FF26
:100E4000FFF7A0FF0546D020FFF77CFFFFF79AFFD2
:100E500007469020FFF776FFFFF794FF0646D02065
:100E6000FFF770FFFFF78EFF8046B5420BDA701B6D
:100E70001E2803DD012005B0BDE8F08FA81B1E2849
:100E800001DD0120F7E747450CDAA8EB07001E2833
:100E900001DD0120EFE720886188401A1E2801DD6E
:100EA0000120E8E7BAF1010F43D170190FF0FBFA06
:100EB00000224FF08043CDE900010FF06FF9CDE93A
:100EC00002010FF0C3FA1FFA80FB08EB07000FF0D6
:100ED000EAFA00224FF08043CDE900010FF05EF9FD
:100EE000CDE902010FF0B2FA81B204910499A1F1A7
:100EF000C8000FF0D8FA0022654BCDE900010FF0D1
:100F00004DF9CDE902010FF0A1FAA9F8000040F671
:100F10003C71A1EB0B000FF0C6FA00225D4BCDE94E
:100F200000010FF03BF9CDE902010FF08FFA2080AC
:100F30001FE070190FF0B7FA00224FF08043CDE99F
:100F400000010FF02BF9CDE902010FF07FFAA9F8AB
:100F5000000008EB07000FF0A6FA00224FF08043D4
:100F6000CDE900010FF01AF9CDE902010FF06EFA98
:100F7000208000207FE702468A4201DD501A00E00F
:100F8000881A7047704770473EB50024002500BF9F
:100F900008E09020FFF7D6FEFFF7F4FE4DF825009D
:100FA000681CC5B2032DF4DBDDE90001FFF7E3FFA8
:100FB0001E2805DCDDE90101FFF7DDFF1E2802DD4B
:100FC000354800683EBDDDE9000108440299084447
:100FD000032190FBF1F430480068844207DA2E4880
:100FE0000068001B1E2809DC2B48046806E02A481C
:100FF0000068201A1E2801DC27480468264804607F
:101000002046DFE73EB50024002500BF08E0D020E1
:10101000FFF798FEFFF7B6FE4DF82500681CC5B235
:10102000032DF4DBDDE90001FFF7A5FF1E2805DC39
:10103000DDE90101FFF79FFF1E2802DD1748006868
:101040003EBDDDE90001084402990844032190FBFC
:10105000F1F412480068844207DA10480068001B67
:101060001E2809DC0D48046806E00C480068201AB8
:101070001E2801DC09480468084804602046DFE7B0
:101080008001224200002242001002400010014074
:1010900000002E4000002640A8000020AC000020E8
:1010A00010B54048008800F0010008B108F030FA9F
:1010B0003C48008820F001003A49088010BD70B516
:1010C00005460C463848C06940F002003649C86100
:1010D00034481C300580001F04803248001F0088FF
:1010E00040F001002F49091F08800846008840F0A1
:1010F000400008802B481038008840F00100294942
:101100001039088002231D2203210120FFF71AFC59
:1011100070BD254AD26942F00202234BDA61234AAC
:10112000126822F00F02214B1A601A46126842F030
:1011300004021A601A1F126822F070421B1F1A6004
:101140001A46126842F030421A60184A0832126891
:1011500042F08002154B08331A60124A1C3210808C
:10116000121F11800F4A0832128842F4E0420D4BE0
:1011700008331A801A46128842F400621A80094A1B
:101180001032128842F01002064B10331A80DA1324
:10119000044B103B1A801A46128842F001021A8052
:1011A0007047000010040040001002400408014095
:1011B0002DE9F04F87B0044688464FF0000BB4F895
:1011C0002690C9F30025404605F0BAFE08B128462E
:1011D00000E002200646206C08F0B0F8B4F84800A1
:1011E00020B1B4F9480009F07CF8834605A807F05F
:1011F0007DFEDDE90501CDE903012DB9216A08680D
:101200008047206A47690DE000200AF0CEFCBDF956
:101210001A30BDF91820BDF91410BDF9160008F0F8
:101220005CFE01273A4603A903A807F00FF904F171
:10123000280151F826000AF0A9FC04F1340151F804
:1012400026000AF0B2FC03A806F028FE09F030FEE2
:10125000022E08DA4C20005B10B10DB1012000E035
:101260000020824606E04E20005B08B1022000E02C
:101270000020824604F14A0131F91A000022114689
:1012800001F02DFDDDE90301CDE9010125B10122C8
:10129000114601A807F053FF022008F069F8B4F9DD
:1012A000442001A9584607F00CFB09F0010030B1B9
:1012B00000200AF07AFC022105A807F038FB002084
:1012C00006F0ECFD07B0BDE8F08F10B5044604F160
:1012D000480009F06DF804F14A0009F069F804F1DA
:1012E0004C0009F065F810BD70B505460C464FF48A
:1012F0008071284604F0ECF9207F00F0020018B15C
:101300000121284606F0D2FA70BD70B506460C469B
:1013100015464FF48071304604F0EEF9207F00F05E
:10132000020018B12946304606F0C0FA022D03D15A
:10133000B4F9240007F01CFF70BD2DE9F04106460A
:101340000C461546AF68A868A0B1387A40B1E08C69
:1013500000F4807098B921463046FFF7C5FF0EE0D3
:10136000E08C00F4807050B1022221463046FFF735
:10137000CCFF04E0032221463046FFF7C6FFBDE85C
:10138000F08170B50446B4F90450284608F0A9FF6E
:1013900006462146284604F0CCF900B970BD206805
:1013A0000B280FD00C2802D00F280FD105E02246C1
:1013B00031462846FFF7C1FFF0E729463046FFF7E0
:1013C000F7FEEBE73046FFF780FF00BF00BF204687
:1013D00005F064FC00BFE1E72DE9FF4F85B006464C
:1013E0000F469046DDE913ABDDF8489000BF302191
:1013F000AFF271021FFA8AF0CDE90090CDE9022127
:10140000424639463046089B05F073F804467CB1E5
:10141000204608F066FF054610222846159904F07C
:1014200081F920223E4905F128000EF0C5FC00BFDD
:10143000204609B0BDE8F08F70B504460D466CB18A
:10144000204608F04EFF0646294606F1480007F000
:101450000EF810B1204605F045F800BF70BD70B51C
:1014600004460D4644B1204608F03BFF064635646D
:10147000204605F037F800BF70BD2DE9F041054664
:101480000C4616466DB1022C0BD8284608F029FFF1
:10149000074607F1280040F82460284605F022F8A6
:1014A00000BFBDE8F0812DE9F04105460C46164627
:1014B0006DB1022C0BD8284608F013FF074607F140
:1014C000340040F82460284605F00CF800BFBDE861
:1014D000F08170B504460D462946204604F0DEF83A
:1014E00070BD70B505460C462CB14FF4807128468E
:1014F00004F0EEF804E04FF48071284604F0FCF8A4
:1015000070BD70B505460C4624B11021284604F084
:10151000DFF803E01021284604F0EEF870BD00006B
:10152000B00000202DE9FF4704460D4616461F4631
:10153000DDF8308000BFB4F90800618A0022CDE9EF
:101540000052CDE90210B4F91030B4F90E20B4F90C
:101550000CC00CEB0701B4F90AC00CEB0600FFF756
:101560003BFF814648466168FFF766FF484604B086
:10157000BDE8F0874C480068704701464A4A106849
:10158000116070473EB505460C4600200090019062
:1015900002902A20009002946946284604F0AEFD8D
:1015A0003EBD3EB5044600200090019002902A20E6
:1015B00000906946204604F0A1FD02983EBD2DE949
:1015C000FC5F04460D4616461F46DDE90C89009671
:1015D0004B46424639462046D4F800C0E047824692
:1015E000504605F00FFF0190618A504604F070F8F4
:1015F000504606F077FC019806F074FC0EE01834B3
:101600000020009003460246D4F800C0204601990D
:10161000E0478346584606F065FC00BF681E051E7D
:10162000EDDC504606F0C0FB1E21019806F06CFA76
:101630005046BDE8FC9F70B506460D463046FFF7A4
:10164000B0FF044614B1656001202060304604F00C
:1016500083FD70BD1CB504460020009001906946D2
:101660002046FFF78FFF04E007F002FA08B90EF0FA
:10167000E5F900980028F7D001981CBD2DE9FC473A
:1016800004460D4616461F46DDE90A8A3B463246A9
:1016900029462046CDE9008AFFF791FF814648465A
:1016A000FFF7D8FFBDE8FC87D00000202DE9F04F00
:1016B0008DB0044689460026484605F041FC824626
:1016C00004F1680151F82A000AF060FA206E0AF06D
:1016D0006CFAE06D07F032FE07A9204604F0BBFE6D
:1016E0000BA9204603F093FF208D20B1B4F9280008
:1016F00008F0F7FD0646DDE90B01CDE90901BDF86B
:1017000024105820005B401C084400B2ADF82400AF
:10171000BDF828105820005B401C081A00B2ADF834
:10172000280005AA09A93046636D06F053FD94F818
:10173000260000F0010000285CD0029694F84900D1
:10174000002802DD94F8490000E001200746002E41
:101750004FD094F8480010B9606C002831D0304662
:1017600006F0A4FD8346206C584529DA606CC8B1A8
:101770000027256C0EE02946304607F0CDFF804655
:1017800006EB080007F098FF0190019808F068FE4A
:1017900007446D1CD4E910010844A842EBDC7FB972
:1017A00001270DE03046216C07F0B6FF804606EBBE
:1017B000080007F081FF0190019808F051FE0746EC
:1017C00000BFDDE90501CDE9030100250DE002A818
:1017D00007F090FF0190019808F042FEBDF80C1050
:1017E000084400B2ADF80C006D1C206CA842EED18C
:1017F00000BF00BF002005F021F800285CD000BF2A
:101800000BA806F04BFB05AB09AA0BA9304604F068
:101810001FFA94F8260000F00100E0B3FE480088AB
:10182000B0B900231A464FF4FA61FC4809F02EFFC4
:10183000F94908804FF4FA61F748B0F9000009F05F
:1018400054FF4FF4FA71F448B0F9000009F044FF76
:10185000F148008828B14946EF48B0F9000009F086
:101860004DFF206F00EBD0714910A0EB410159B141
:10187000BDF91230BDF90C503D446A1EBDF90E1081
:10188000BDF90C0007F0E2FBBDF91230BDF90C50B8
:101890003D446A1E00E005E0BDF90E10BDF90C00E4
:1018A00007F0D4FB002006F0F9FA204604F049F8CE
:1018B00004F08DFF0028A3D10DB0BDE8F08F2DE915
:1018C000F0410546A88806B2304608F00AFD0446F5
:1018D000304608F006FD0746304604F0DAFB314694
:1018E0002046FFF7E3FE206F401C2067CA48B0F98E
:1018F000000009F01BFFBDE8F08110B5044604F1BB
:10190000280008F055FD10BD2DE9F04104460D46B4
:10191000208D20B3B4F9280008F0E3FC804640464F
:1019200006F0C4FC064694F8480008B1012000E027
:1019300000200746002D00DA0025B54200DD3546BF
:10194000B4F92A00C01BA84202DAB4F92A00C51B68
:10195000206CA84200D025640020606400BFBDE870
:10196000F0812DE9F34F83B00C46039800286ED028
:10197000039808F0B6FC0546288D002866D0B5F916
:10198000280008F0AEFC0190E86D07F0D7FC02904B
:10199000039805F09FFE8346019807F0D4FA80462D
:1019A00095F8540000F00300012809D002280ED158
:1019B000ABEB0801481C00EBD071A4EB61040DE017
:1019C000ABEB0801A86D401C081A241A06E0A86DAC
:1019D000401C296A49690844241A00BF00BF0198C5
:1019E00006F064FC0646002C04DA00212846FFF7C6
:1019F0008BFF24E0444504DD31462846FFF784FF91
:101A00001DE04FF00009CA460FE001A807F072FE82
:101A10000090009808F024FD07460AEB0700A0425A
:101A200000DD06E0BA4409F10109B14501DAA24539
:101A3000EBDB00BF49462846FFF766FF00BF029870
:101A400007F07CFC039804F04DFD00BF00BF05B01B
:101A5000BDE8F08F2DE9F04104460E46A08D8719B0
:101A6000B4F92800394609F04BFD054675B1208DC3
:101A700038B9284608F035FC8046002088F8000078
:101A800000BFA78525850120BDE8F0810020FBE788
:101A90002DE9F04104460D460026208D38B1B4F9F9
:101AA000280008F01EFC07460EF0E0F80646A819CC
:101AB000401CA18D451A002D08DD05F110012046BE
:101AC000FFF7C8FF10B90020BDE8F0810120FBE757
:101AD0002DE9F04104460D46002D17DDB4F92A002A
:101AE000002813DD0026208D38B1B4F9280008F055
:101AF000F8FB074606F0DAFB0646A819B4F92A10E7
:101B0000884202DD0020BDE8F08100BF0120FAE735
:101B10002DE9F04107460C46208DF0B1B4F92800BC
:101B200008F0DFFB05462846216C07F0F5FD064668
:101B300028460EF09BF8B0420ED93544284607F0EF
:101B4000B1FD804605EB080128460EF06BF8052133
:101B5000384605F0ABFE00BF00BFBDE8F0812DE9BF
:101B6000F04780460C46164601212046FFF7B0FF9D
:101B700048B3304607F0B6FD074639462046FFF722
:101B800087FFF8B1B4F9280008F0ABFB05462846FA
:101B9000216C07F0C1FD81464D4428460EF066F8E1
:101BA00000F1010AE819524629460EF0C3F8314601
:101BB000284607F08BFD0521404605F077FE012001
:101BC000BDE8F08700BF0020FAE770B504460026A4
:101BD000208D70B1B4F9280008F083FB0546284633
:101BE000216C07F099FD0544284607F065FD06467F
:101BF00000BF304670BD2DE9F04107460C46154642
:101C0000AE6800BFA86878B1307A68B138463168EC
:101C1000FFF7A7FE024905E0F0000020BF1800080A
:101C2000F4000020206C0860BDE8F0812DE9F0414F
:101C300007460D46002F6FD0384608F052FB044689
:101C4000002C6AD0E06C20B129463846E26C9047FF
:101C500094E0122D4AD008DC082D53D00D2D75D0FC
:101C6000102D49D0112D73D108E0132D22D01B2D3A
:101C70006DD01D2D57D01E2D6AD14FE0208DC0B1E3
:101C8000B4F9280008F02DFB06463046216C07F019
:101C900043FD0644304607F00FFD8046B8F17F0F44
:101CA00006DA08F1010030700521384605F0FEFD26
:101CB00000BF62E0208DC0B1B4F9280008F011FB2C
:101CC00006463046216C07F027FD0644304607F0F3
:101CD000F3FC8046B8F1200F06DDA8F1010030705A
:101CE0000521384605F0E2FD00BF46E0206C411CAE
:101CF0002046FFF709FE40E0206C411E2046FFF71A
:101D000003FE3AE0206C411E2046FFF7FDFD214610
:101D10003846FFF7FDFE30E034E032E02146384639
:101D2000FFF7F6FE29E094F84800012803D10020CF
:101D300084F8480006E0012084F848002046216C21
:101D4000FFF7E2FD19E001E002E000E000BF14E06F
:101D5000202D11DB94F8480018B121463846FFF7D2
:101D6000D7FEAAB221463846FFF7F9FE20B1206C13
:101D7000411C2046FFF7C8FD00BF00BF384604F0F5
:101D8000B1FB00BFBDE8F0812DE9F0410446B4F994
:101D90000450284608F0A5FA8046284605F0D0F8F9
:101DA00007462146284603F0C4FC08B9BDE8F08187
:101DB00020680B2811D00C2804D00E2811D00F2831
:101DC00021D105E0224641462846FFF714FF1AE0DC
:101DD00029464046FFF76AFCE8E74046FFF78DFDDD
:101DE00011E07FB1A068406800280BDDA06806689C
:101DF000092E00D104E031462846FFF717FFD5E74A
:101E000000BF00BF00BF00BF204604F047FF00BF77
:101E1000CCE72DE9FF4F85B0074688469146DDF8AF
:101E200058B0DDE9135A00BF45F480555422BA4B2F
:101E3000A8B240F002001299CDE90232CDE90010BB
:101E40004A4641463846089B04F053FB064646B3D3
:101E5000304608F046FA044610222046159903F051
:101E600061FC1C22AD4904F154000DF0A5FF0120D6
:101E700084F84900BBF1000F01D1082000E058466A
:101E800000B260850020A0852085B4F92A00411C9D
:101E90002046FFF7DFFD18B9304604F05DF9002653
:101EA00000BF304609B0BDE8F08F70B505460E465C
:101EB00005B970BD284608F014FA04461CB1E66561
:101EC000284604F00FFB00BFF3E72DE9F04106467A
:101ED0000D4617460EB9BDE8F081304608F001FA0C
:101EE000044644B1022D06D204F1680040F8257082
:101EF000304604F0F7FA00BFEDE72DE9F041064661
:101F00000D4617460EB9BDE8F081304608F0E9F9F4
:101F1000044644B1022D06D204F1600040F8257059
:101F2000304604F0DFFA00BFEDE72DE9F0478046C8
:101F30000F46B8F1000F4ED0404608F0D2F90446E3
:101F4000002F3DD04FF00009208D50B1B4F928008A
:101F500008F0C7F9824650460DF088FE00F10109ED
:101F600000BF384606F0A2F90646B4F92A10B1427D
:101F700001DAB4F92A603146384607F0CDFB451C3A
:101F8000A5EB09012046FFF783FDC0B1B4F9280095
:101F900008F0A7F982462A46394650460DF085FEDC
:101FA000681E2064B4F92A10206C884206D194F887
:101FB0004800012802D1206C401E206400BF06E0CA
:101FC00004F1280008F0F4F90020A08520644046C0
:101FD00004F088FA00BFBDE8F0872DE9F047074616
:101FE0000C4615461CB30020207007B3384608F095
:101FF00078F98046B8F82800C0B1B8F9280008F090
:1020000070F98246504606F051F98146A94500DD37
:10201000A9464946504607F07FFB064632465146E0
:1020200020460DF042FE0020A05500BF00BFBDE8D5
:10203000F08770B50546002625B1284608F051F90D
:102040000446E66B304670BD70B506460D46DEB1FF
:10205000304608F046F90446206BA84200DD256BA7
:10206000606BA84200DA656BE06BA8420CD0E563B8
:10207000206D10B13046216D8847304604F032FAA9
:102080000521304605F012FC70BD2DE9F0470646EB
:102090000D4676B3304608F024F90446B4F92A0018
:1020A000A84225D0B4F92A00A84216DD208DA0B19F
:1020B000B4F9280008F015F90746384606F0F6F896
:1020C0008046A84508DD2946384607F025FB8146AD
:1020D000002007F8090000BF00BFA08D281A411C8E
:1020E0002046FFF7B7FC28B26085304604F0FAF9C5
:1020F00000BFBDE8F08770B505460E4605B970BD56
:10210000284608F0EEF804461CB16665284604F03F
:10211000E9F900BFF3E70000891D0008D4000020A2
:102120002DE9F04385B004460D4616461F46DDF8FE
:10213000309000BFB4F90810628A00236069CDE9CD
:102140000053CDE902210490B4F91030B4F90E2007
:10215000B4F90CC00CEB0701B4F90AC00CEB060093
:10216000FFF757FE8046B8F1000F03D0618A404662
:10217000FFF7C1FF404605B0BDE8F08370B50646E5
:102180000D46304608F0ADF8044675B194F85C0091
:1021900000F0080048B9B4F85C0040F00800A4F86A
:1021A0005C00304604F09EF90EE06DB994F85C00D6
:1021B00000F0080040B1B4F85C0020F00800A4F87A
:1021C0005C00304604F08EF970BD2DE9F041074601
:1021D0000C461546AE68A868C0B1307AB0B194F824
:1021E0005C0000F0080010B9384605F04BFD384699
:1021F00005F05FF894F85C0000F0100030B1F94889
:10220000B0F900203146384605F0BEFCBDE8F0814B
:1022100070B50446002594F8260000F0200030B187
:10222000B4F940501DB9A06A06F0DAFE851C2846B4
:1022300070BD2DE9F04F85B005460C460020049096
:102240000390B5F94260284605F034FA029028461A
:1022500005F038FA019095F8260000F0200010B142
:10226000B5F9440003902846FFF7D2FF8046B5F841
:102270004E0020B1B5F94E0005F03CFA04900FFA7B
:1022800088F02080049800B2608030B2A08002986C
:10229000801B401E01B221810398304400EB0801ED
:1022A0000498084401B2E1800198801B401E01B2ED
:1022B000618130B2A0810298801B401E01B2218250
:1022C00031B2E18106EB0800401E01B26182B5F92E
:1022D00018902FE0484608F004F80746B7F90000C8
:1022E000B5F90010A0EB010AB7F90400B5F9001028
:1022F000A0EB010BB7F90200B5F90210401A0090EB
:102300000098B04214D1387F00F0800040B1B4F999
:10231000100050450CDBAAF1010001B2218207E058
:10232000B4F90C00584503DC0BF1010000B2A081A8
:10233000B7F91A90B9F1000FCCD105B0BDE8F08F14
:102340002DE9F04F89B0044604F083F983464FF03D
:10235000000A584605F0BEF90546584605F0CAF988
:102360000646B4F9428004A92046FFF762FF94F8BC
:102370005C00C0F3C009B4F8500020B1B4F95000BB
:1023800007F0AFFF8246BDF81400ADF80800BDF8B5
:102390001800ADF80C00BDF81E00ADF80A00BDF83D
:1023A0002200ADF80E00BDF81E00401C01B2ADF8D1
:1023B0001E10BDF81C00401C00B2ADF81C00BDF89A
:1023C0002000401E01B2ADF82010A06A06F0B6FF52
:1023D000B4F95A306A4607A9504605F0FBFEBDF92C
:1023E000100000EB0807002004F028FA002847D06E
:1023F00000BF04F12C0151F8290009F0C7FB04F1DA
:10240000340151F8290009F0D0FB6B4607AA02A954
:10241000504603F01DFC744809F0C7FBA8F1010306
:102420006A1E0021084606F0CDFC731EBDF914009B
:10243000421E0021084606F0C5FC731E6A1EBDF947
:102440001810481C002106F0BDFC731E6A1EBDF961
:102450001A00411C002006F0B5FCB4F944003844D1
:10246000431E6A1E3946002006F0ACFCB4F9420057
:10247000022801DB03F04EFB04F0A9F90028B8D1D3
:1024800009B0BDE8F08F2DE9F04106460F4614462D
:10249000A068E0B1A568B5F90200314604F030FD4E
:1024A0008046B8F1000F04D001213046FFF766FEE8
:1024B0000CE000213046FFF761FEB5F9000031461F
:1024C00004F003FD10B12888A7F85E0000BFBDE846
:1024D000F08170B504460D461CB129462046FFF731
:1024E0004DFE70BD2DE9F04788B00446B4F9047084
:1024F000384607F0F6FE0546D4F808906E6E0AE0FE
:102500002046716888478046B8F1000F02D008B0B5
:10251000BDE8F0873668002EF2D12068172832D047
:102520000CDC0D2867D004DC0B2878D00C2818D1DF
:1025300018E00F2812D014287ED119E01F2836D0B9
:1025400021286ED0262822D02A2875D1A06810B163
:10255000A068286601E0286EA060D8E72846FFF74B
:10256000EFFE69E0224629463846FFF72EFECEE709
:1025700003A92846FFF75DFE0498C9F800000598F6
:10258000C9F80400C3E7B5F94C00A060BFE7A06834
:1025900002280BD1ADF80670A068029027200090A9
:1025A000B4F90600694603F0A9FD00BFAFE7A068D3
:1025B00001281BD1B5F95E0005F0C8F820B1B5F9C6
:1025C0005E0005F05FFB05E0B5F94C0005F0ECFBA3
:1025D000A5F85E0001213846FFF77BFF0020A060D0
:1025E00008E008E018010020AAAAAA000021384645
:1025F000FFF76FFF8BE795F85C0000F0080068B903
:10260000D4F808A0DAF80880B8F1000F05D098F8DF
:10261000080010B1384605F035FB00BF0CE006E0BD
:10262000FFE7224629463846FFF72DFF04E005F173
:10263000500007F0BDFE00BF00BF2146384603F042
:1026400078F800B963E7204604F028FB00BF5EE796
:102650002DE9FE430446B4F90470B4F9040004F013
:10266000D1FF8046404607F03CFE0546AE6C206830
:10267000172858D008DC0E283ED00F280BD014287D
:102680004FD0152853D14DE01F281AD020282ED026
:1026900022284CD142E06FF07041E86B884204D0B0
:1026A000E86B09F073FA08F003FC46B194E8070000
:1026B0008DE80700ADF804706846B04700BFBDE87C
:1026C000FE83A06890B1B5F85E0040B1B5F95E0038
:1026D000B84204D0B5F95E0005F0D4FA04E03846FB
:1026E00005F062FBA5F85E000020A060E7E7214648
:1026F000404603F01EF8E2E7A068406800280CDDC1
:10270000A068D0F80090B9F1090F05D1384605F05E
:102710004BFBA5F85E00D2E700BF08E0E86BA060C5
:10272000CDE700BF00BF204604F0B8FAC7E700BFFE
:1027300026B1A4F804802046B04702E0204604F009
:10274000ADFA00BFBBE730B585B00446B4F84C0025
:1027500010B9B4F84E0068B369462046FFF769FD2A
:10276000B4F84C00B8B1BDF90620BDF90410B4F9B5
:102770004C0005F073F8BDF90A50BDF90630EB1AAC
:102780005A1CBDF90830BDF904505B1B591CB4F943
:102790004C0005F021FBB4F84E0050B1BDF90630F5
:1027A000BDF902505A1BBDF90410B4F94E0005F0F2
:1027B00055F800BF05B030BD70B504460D466CB18C
:1027C000204607F08EFD0646294606F1500005F02A
:1027D0004EFE10B1204603F085FE00BF70BD2DE90E
:1027E000F04F89B00746884691469B46DDE9135A6B
:1027F00045F480554822454BA8B21299CDE90232E2
:10280000CDE900105B464A464146384603F071FE6A
:102810000646002E49D0304607F063FD04463022BC
:102820002046159902F07EFF2022394904F1280044
:102830000DF0C2FA00204834608217982060A4F896
:1028400014A00020E082E080E061483C04A920461A
:10285000FFF7EFFC00202F4941F28272CDE90062C0
:10286000CDE90210BDF91AE0BDF916C0AEEB0C0CB3
:102870000CF10103BDF918C0BDF914E0ACEB0E0C6E
:102880000CF10102BDF91610704603F032FEA4F8F7
:102890004C0042F20400284010B9304605F068FBB5
:1028A00030461699FFF788FF00BF304609B0BDE8F3
:1028B000F08F70B505460C4675B1284607F011FD3E
:1028C0000646B6F95A00A04205D020B2A6F85A0032
:1028D000284603F007FE00BF70BD70B505460E46E2
:1028E00095B1284607F0FDFC044636B1B4F85C000B
:1028F00040F01000A4F85C0005E0B4F85C0020F0A3
:102900001000A4F85C0000BF70BD0000E5240008C2
:10291000F8000020512600082DE9F04387B0044656
:102920000D4616461F46DDF83880B4F90810628A55
:102930006068CDE90408CDE902210020CDE900500E
:10294000B4F91030B4F90E20B4F90CC00CEB070147
:10295000B4F90AC00CEB0600FFF741FF8146484678
:1029600007B0BDE8F08300001D49086070471C48AF
:1029700000687047022803D2194A121D42F820103D
:10298000704701460020022903D2154A121D52F851
:1029900021007047124948617047114840697047EB
:1029A00001B20F4A118370470D48B0F91800704703
:1029B00001B20B4A518370470948B0F91A007047B9
:1029C000022803D2064A0C3242F820107047014612
:1029D0000020022903D2024A0C3252F8210070472B
:1029E000F80000202DE9F04105460C4616466DB171
:1029F000284607F076FC0746022C06D207F12C0089
:102A000040F82460284603F06DFD00BFBDE8F0816A
:102A10002DE9F04105460E4685B1284607F061FCD8
:102A20000746002404E007F1340040F82460641CE9
:102A3000022CF8D3284603F055FD00BFBDE8F08115
:102A40002DE9F04105460C4616466DB1284607F0C3
:102A500048FC0746022C06D207F1340040F82460F7
:102A6000284603F03FFD00BFBDE8F08170B5064683
:102A70000C4666B1304607F034FC0546E86BA042D0
:102A800004D0EC63B5F94C0003F02CFD00BF70BD21
:102A90000146088870472DE9F05F044688461646CF
:102AA0004FF00009CA4646B131B2404605F03BFD41
:102AB000B0F1000901D14FF0010ABAF1000F1BD1AA
:102AC000B4F800B00BF101025100B4F9020008F0B3
:102AD00017FD05462DB9484607F061FC4FF0010A85
:102AE00009E0284607F0FDFB074627F81B906580A4
:102AF0002088401C208000BF5046BDE8F09F2DE993
:102B0000F0410446B4F9027097B1384607F0E9FB8A
:102B10000646002504E006EB450007F049FC6D1C65
:102B20002088A842F7DCA01C07F042FC002020808F
:102B3000BDE8F0812DE9F04704460D4690464FF080
:102B400001092088A8420FD9B4F9026066B1304665
:102B500007F0C7FB074607EB4507384607F028FC98
:102B6000A7F800804FF000094846BDE8F0872DE93E
:102B7000F05F0746884691461D4600243888404548
:102B80002DD9B7F902A0BAF1000F27D0504607F0AF
:102B9000A8FB064606EB4806B6F900402CB12046D5
:102BA00007F0F4FBA84200D0002444B928B205F095
:102BB000DAFC04461CB1304607F0FAFB3480B9F168
:102BC000000F0AD04CB1204607F08BFB83462A4603
:102BD000494658460DF069F800BF00BF00BF2046C7
:102BE000BDE8F09F2DE9F04104460D464FF0000886
:102BF0002088A84209D9B4F902702FB1384607F0ED
:102C000070FB064636F9158000BF4046BDE8F081EE
:102C10002DE9F04105460E46002731462846FFF7CC
:102C2000E1FF04461CB1204607F05BFB074638462F
:102C3000BDE8F0812DE9F04705460E462888B042F0
:102C40001ED9B5F90280B8F1000F19D0404607F03F
:102C500048FB074607EB460007F0AAFB2888401E02
:102C600080B228808146344605E007EB4400408866
:102C700027F81400641CA9F10100A042F5DA00BF96
:102C8000BDE8F0872DE9F84306460F4614464FF09D
:102C9000000820B205F067FC0090BDF80000D8B134
:102CA00039463046FFF7B4FF8146BDF9000007F012
:102CB00018FB05462246494628460CF0F6FFBDF9AA
:102CC000002039463046FFF735FF18B1684607F057
:102CD0006FFB00E0A84600BF4046BDE8F8832DE941
:102CE000F04104460E46174654B1204607F0F9FA63
:102CF000054628683A46314603682846984700BF8B
:102D0000BDE8F08170B5044644B1204607F0E9FA09
:102D10000546286841682846884770BD0020FCE7C2
:102D200070B5044644B1204607F0DBFA0546286832
:102D300081682846884770BD0020FCE72DE9FE4FDA
:102D40000546E86B464205F13000FFF7A1FE009012
:102D5000286A4769A86A08F019FF286C06F0EEFA9D
:102D600008F0A6F84FF00008A4E0414605F1300055
:102D7000FFF74EFF044601A806F0B8F830B2ADF8F0
:102D80000400BDF804002188084400B2ADF8080032
:102D9000E088002854D04FF00009CA46207900F09E
:102DA0000300012802D0022814D107E0B4F906007C
:102DB000FFF7A8FF2168A1EB00090BE0B4F90600BA
:102DC000FFF7A0FF2168A1EB000B0BEBDB704FEAD4
:102DD000600900BF00BF207900F00C00042802D079
:102DE0000C281ED10CE0B4F90600FFF799FFBDF9DD
:102DF0000A10BDF90620891A491CA1EB000A10E04F
:102E0000B4F90600FFF78CFFBDF90A10BDF90620E2
:102E1000891A491CA1EB000B0BEBDB704FEA600A2F
:102E200000BF00BF01A805F039F806EB0901B4F9AD
:102E300006005246FFF753FF002005F02FF800BFB1
:102E400001A9284602F084FDBDF90800BDF904106F
:102E5000401A0644BDF80400FA4909883944084478
:102E600000B2ADF80400BDF80800F64909883944FD
:102E7000401A00B2ADF80800BDF80600F249098812
:102E80003944084400B2ADF80600BDF80A00EE4926
:102E900009883944401A00B2ADF80A00E86A08F01F
:102EA00084FEB4F9042001A904F1080005F009FD2D
:102EB00008F1010800988045FFF657AF01A806F019
:102EC00015F830B2ADF8040040F6FF70ADF8080018
:102ED00001A9284602F03CFDBDE8FE8F10B5DB4895
:102EE000006830B1D948006808F05BF90020D74984
:102EF000086010BD2DE9F041044604F13000FFF7F1
:102F0000C7FD074600250CE0294604F13000FFF715
:102F10007FFE0646F08818B1B6F9060007F03FFAC2
:102F20006D1CBD42F0DB04F13000FFF7E8FDFFF758
:102F3000D5FFBDE8F0812DE9F84F81460D461646D4
:102F400098464FF0FF300090B8F1000F34DB484650
:102F500004F0D0FB40452FDDB9F1000F2CD0002745
:102F600005F13000FFF794FD8246002420E0214661
:102F700005F13000FFF74CFE8346DBF80000074404
:102F8000301FB84213DC301D874210DC0094AAF1D8
:102F90000100A0420BDDBE4209DA611C05F13000E0
:102FA000FFF736FE8346DBF8000000B902E0641C40
:102FB0005445DCDB00BF00BF0098BDE8F88F2DE969
:102FC000F04705460E4614462DB3002C23DB284659
:102FD00007F087F9804608F13000FFF759FDB0424D
:102FE00018D3314608F13000FFF712FE074687B1CB
:102FF0003C60284603F076FA284604F003FB81463D
:10300000252103F08BF8284604F0FCFA814603F0F2
:1030100069FA00BF00BFBDE8F0872DE9F041044622
:103020000D4600279CB1204607F05BF9064606F1E5
:103030003000FFF72DFDA84208D3294606F13000E5
:10304000FFF7E6FD8046D8F8007000BF00BF3846A5
:10305000BDE8F0812DE9F04781460C4615469A46B9
:10306000089E53462A4621464846FFF764FF074616
:10307000012E06D1002F04DB606B401C08B965638C
:10308000A763002F0CDB0121484604F066FD6F4862
:10309000006828B96E48006808F083F86B4908603A
:1030A000606B002816DB606BA84213D0012E11D193
:1030B0004846A16BFFF7B1FF2844616BA0EB010804
:1030C000B8F1000F05DB42464846A16BFFF777FFDA
:1030D000656300BF002E06DCFFF700FF4FF0FF30F6
:1030E000606304F049FDBDE8F0872DE9F8438046B0
:1030F0000F461646B4684CB1207A00902068F96BF0
:103100004218394640466368FFF7A4FFB06828B10B
:10311000207A08B1012502E0022500E003252946B6
:10312000404604F0C3FBBDE8F88370B50446B4F92B
:1031300004502146284602F0FCFA00B970BD28462A
:1031400007F0CFF8064620680B280DD00C2805D0D4
:103150000F280DD13046FFF7F1FD0DE02246314634
:103160002846FFF7C2FF07E03046FFF7C3FE00BF67
:10317000204603F093FD00BF00BF00BFDEE72DE94E
:10318000FF5F0746884691461D46DDE90EAB109865
:103190001090B9F1000F13D197B9B8F1000F0FD10A
:1031A00002A9504604F092F9BDF90C00BDF90810CF
:1031B000401A00F10109BDF90870BDF90A8000BF8D
:1031C00085B902F0E2FB04462248006805F00DFFD5
:1031D00005461D480068022101FB0055606901FB9E
:1031E000005500BF4BF4207B24211B4A1FFA8BF0B3
:1031F0002B46CDE900A0CDE902214A46414638469A
:1032000003F077F90646C6B1304607F06AF804467F
:1032100000222046119902F085FA10480068A06249
:103220000F480068E0620B48006820644FF0FF30F0
:103230006063A0630020E06300BF304604B0BDE8D7
:10324000F09F00002C010020300100201C01002014
:1032500020010020340100202B310008240100202F
:10326000280100202DE9FF5F04460D4616461F4643
:10327000DDE910ABDDE90E893B46324629462046A2
:103280008DE8000DCDF80C90FFF779FF04B0BDE894
:10329000F09F0146BA4A1068116070470146B94A6A
:1032A0001068116070470146B74A10681160704796
:1032B0000146B64A1068116070470146B44A10686A
:1032C000116070470146B34A106811607047AC48FE
:1032D00000687047AB4800687047AB4800687047AB
:1032E000AA4800687047AA4800687047A948006863
:1032F000704770B504460D4644B1204606F0F1FF14
:1033000006463564204603F0EDF800BF70BD7CB57D
:1033100004460D46A4B16946204604F04FF8BDF9B5
:103320000400BDF90020801A411C2A46204604F002
:1033300053FD204604F066F9064603F0D3F800BFBB
:103340007CBD70B504460D4644B1204606F0C9FF69
:103350000646F562204603F0C5F800BF70BD70B5A3
:1033600004460D4644B1204606F0BBFF0646B56252
:10337000204603F0B7F800BF70BD2DE9F0410446C8
:103380000D461646BCB1204606F0ABFF074607F1D6
:103390003000FFF77DFBA8420CD3294607F130002F
:1033A000FFF736FC804630B2A8F80400204603F050
:1033B00099F800BF00BFBDE8F0812DE9F041054656
:1033C0000C469DB1002C11DB284606F08AFF06460C
:1033D000F06BA04209D0F463284603F083F8284636
:1033E00004F010F9074603F07DF800BFBDE8F08156
:1033F0002DE9FE4F07460D4616469846002F4AD047
:10340000384606F06EFF044695B9206C05F096FF2D
:103410008146304605F097FD216A49695B4A12688A
:103420001144022202FB0105484605F087FF00BF58
:1034300000950FFA88F0ADF804000020ADF8060002
:1034400004F13000FFF724FB824630460CF00EFCFE
:1034500000F10D094A46694604F13000FFF71BFBF5
:10346000C0B9384606F03DFF0446514604F130002D
:10347000FFF7CEFB8146314609F108000CF0D2FB84
:10348000384603F02FF8384604F0BCF8834603F0C2
:1034900029F800BF00BFBDE8FE8F2DE9F0410446CA
:1034A0000D46C4B1204606F01CFF064606F130006A
:1034B000FFF7EEFAA8420DD9294606F13000FFF7D2
:1034C000B9FB204603F00EF8204604F09BF80746AF
:1034D00003F008F800BFBDE8F0812DE9F04705468C
:1034E0000E461446FDB1284606F0FBFE074607F1DE
:1034F0003000FFF7CDFAB04214D920460CF0B6FBED
:1035000000F10C094A46314607F13000FFF7BAFBDB
:103510008046B8F1000F04D0214608F108000CF0F5
:1035200081FB00BF00BFBDE8F0877CB504460025E5
:103530009CB16946204603F041FFBDF902004242BA
:10354000BDF900004142684605F0F9FDBDF90600ED
:10355000BDF90210401A451C00BF28467CBD70B55D
:10356000044600254CB1204606F0BBFE064606F197
:103570003000FFF78DFA054600BF284670BD0000F9
:103580002001002024010020280100202C0100201F
:10359000300100203401002070B50446E06D08B110
:1035A000E56D06E0206D05F020FD0546A06D00B13B
:1035B0006D1C284670BD2DE9FC4107460C460126CE
:1035C0006946384603F098FFB4F92800FFF7ADFFCD
:1035D000BDF90610BDF90220891A491CA1EB0008AB
:1035E0002046FFF7D9FF054635B1B8FBF5F60EB911
:1035F000012000E0304606463046BDE8FC812DE95A
:10360000F74F90B00C46B4F92800FFF7A8FF0890D8
:1036100004F12A00FFF73CFA0A9021461098FFF7C0
:10362000CAFF09902046FFF7B7FF0590206E07906C
:10363000606E0690206AD0F81490B4F92800FFF765
:1036400074FF00EB0905E26E0998401C0A99884254
:1036500001DD0A9801E00998401C1044029012987C
:10366000806801680D9140680E90B4F902004242F2
:10367000B4F9000041420DA805F061FD0BA91098B6
:1036800003F03AFF0BA90DA804F029FE206C08F006
:103690008CFA206D05F052FE022005F069FEE66E00
:1036A000C8E0314604F12A00FFF7B2FA0F900F98F4
:1036B00000287CD028B2ADF82E00BDF92E00BDF94F
:1036C0003A10884200DDB9E005982844401E00B257
:1036D000ADF83200BDF93200BDF93610884267DB23
:1036E000606DB04209D194F8260000F0010008B1E5
:1036F000022000E00120804601E04FF0000804F1C4
:10370000340151F8280008F041FAA06D28B1BDF845
:103710003200401E00B2ADF83200A06FA9EB0007E6
:103720000020039070E0B4F928000399FFF775FCBE
:10373000824638B2ADF82C00BDF92C00BDF9381026
:10374000884200DD64E007EB0A00401E00B2ADF8DD
:103750003000BDF93000BDF93410884250DB0399C8
:103760000F98FFF755FA8346BBF8000080B1BBF90C
:10377000000006F0B6FD0190019951F8280008F00C
:1037800005FA01990C3151F8280008F00EFA05E00D
:1037900004F1400151F8280008F007FABDF9323071
:1037A000BDF93020BDF92E10BDF92C0001E040E03C
:1037B0003DE007F043FBBDF82C100798084400B229
:1037C000ADF82C00BDF830100698081A00B2ADF81C
:1037D000300004F12E000399FFF71AFA00680490F4
:1037E0000BA90BF10200049A05F06BF8BBF800007E
:1037F00028B104F1340151F8280008F0C7F900BFDE
:1038000057440398401C03900899039888428ADB28
:1038100000BFBDF93800B84208DBBDF93230BDF950
:103820003820BDF92E10384607F008FB00BF059878
:103830000544761C02988642FFF633AF00BFBDF9FF
:103840003A00A8420BDB606B08F0A0F9BDF93A30F2
:10385000BDF93820BDF93400294607F0EFFAA06D14
:10386000002841D0E06C08F0A0F9B4F92800FFF777
:103870005CFE4844451E002612E005980544BDF94B
:103880003A00A84200DA0EE0BDF93600A84206DC94
:10389000BDF93820BDF93410284605F083F8761CB0
:1038A00009988642E9DB00BFA06FA9EB000700265C
:1038B00016E0B4F928003146FFF7AFFB0744BDF925
:1038C0003800B84200DA0EE0BDF93400B84206DC38
:1038D000BDF93A20BDF93610384605F08FF8761C50
:1038E00008988642E5DB00BF204602F02AF813B0B4
:1038F000BDE8F08F7CB505460C46B4F92800FFF70B
:1039000014FE06466946284603F0F6FDBDF802009F
:10391000304400B2ADF802006946284602F0AEFD20
:103920007CBD2DE9FC4107460C461546002D22DBE7
:10393000B4F92800FFF7F9FD80462046FFF72CFE7A
:1039400006466946384603F0D7FDBDF80210E06E22
:10395000281A00FB0680084400B2ADF80200BDF84A
:1039600002003044401E00B2ADF8060069463846F9
:1039700002F084FD00BFBDE8FC812DE9FC478246D2
:103980000C461546B4F92800FFF7CFFD804669467E
:10399000504603F0B1FDBDF900102868471ABDF983
:1039A00002106868401AA0EB0806BDF80400BDF8D4
:1039B0000010401A00B2ADF80400BDF80600BDF8D2
:1039C0000210401A00B2ADF80600002F1EDBBDF950
:1039D0000400B8421ADB002E18DBBDF90600A0EB8C
:1039E0000800B04212DB2046FFF7D6FDB6FBF0F12F
:1039F000E06E01EB000904F12A00FFF749F84845A1
:103A000003D94946504600F070FB00BFBDE8FC8773
:103A1000FEB504460D46002000900190029020461D
:103A200006F05FFC0646B6F8800010B1B6F98000DB
:103A300002E0204603F0E6FD0746262000900295AE
:103A4000ADF804406946384602F058FBFEBD2DE94A
:103A5000F04180460E461546AF6800BFA86868B1C1
:103A6000387A48B13A4631464046FFF786FF01248E
:103A7000404604F007F902E0022400E00324214656
:103A80004046FFF7C5FFBDE8F0811CB50446694616
:103A9000204603F031FDBDF90400401C1CBD2DE99A
:103AA000F04104460F4601253846FFF758FD804691
:103AB000B8F1000F0AD00026002505E0314638464F
:103AC000FFF7ABFA0544761C4645F7DBD4E91E1038
:103AD000281A814204DDD4E91E01281A081A054477
:103AE0002846BDE8F08170B505460C46E66E606D6F
:103AF000002807DB00231A4604F16800616D03F01B
:103B0000F1FB03E004F1680003F0DCFB04F1740056
:103B100003F0D8FB04F1740204F16801284601F0B7
:103B200087FEE06E801B70BD70B505460C4604F143
:103B30002A00FEF7ADFF064621462846FFF73BFD6B
:103B400020670EB1304600E00120A0662846FFF74E
:103B50009CFFE067B4F928102046FFF7A0FF6067DC
:103B600021462846FFF7BFFF70BD2DE9F047044608
:103B700004F12A00FEF78CFF804604F12E00FEF7C8
:103B800087FF8146002519E0294604F12A00FFF746
:103B90003FF8824600260BE031465046FFF738F8E2
:103BA0000746388818B1B7F9000006F0F8FB761C14
:103BB0004E45F1DB5046FEF7A2FF6D1C4545E3DBA9
:103BC00004F12E00FEF79BFF04F12A00FEF797FF99
:103BD000BDE8F08770B50546284600F043FA044674
:103BE0001CB1611E284600F080FA70BD70B5044615
:103BF000204600F037FA0546691C204600F075FAA9
:103C000070BD70B505460C46112C06D0132C09D199
:103C10002846FFF7EBFF012070BD2846FFF7DAFFCB
:103C20000120F9E70020F7E7FEB50446B4F9046087
:103C30002146304601F07DFD00B9FEBD304606F05C
:103C400050FB054620680E286AD006DC05280CD0FB
:103C50000B2875D00C2877D15CE00F2854D025288C
:103C600002D0262870D105E000BF29463046FFF774
:103C70005BFFE2E7A06805280CD006283DD00728A6
:103C800040D1B4F90600B5F92810884201D10020CE
:103C9000288537E0304603F0C6FCB4F906108842A8
:103CA0000FD1B4F90600694603F0C4FC0199E96636
:103CB00029463046FFF71EFE0A213046FFF7A8FED0
:103CC0001AE0304603F0A8FCB4F90610884213D17C
:103CD000B4F90600694603F0ADFC0199A9672946CD
:103CE0003046FFF721FFB5F92800A96FFFF765FB04
:103CF0000A213046FFF78CFE04E029463046FFF7E4
:103D000013FF00BF00BF98E7224629463046FFF761
:103D100076FC92E7224629463046FFF798FE8CE76C
:103D2000A068406800280ADDA06807683946304668
:103D3000FFF767FF10B180E702E005E000BF03E096
:103D40002846FFF712FF00BF00BF204602F0A6FF83
:103D500000BF72E72DE9FF5F06460F469046994681
:103D6000DDE90EAB10981090B8F1000F17D1B9F142
:103D7000000F14D19EB997B902A9504603F01EFB5B
:103D8000BDF90C00BDF90810401A00F10108BDF999
:103D90000E00BDF90A10401A00F1010900BF6421AC
:103DA000624A1FFA8BF04B46CDE900A0CDE9022113
:103DB00042463946304602F09CFB05463DB3284654
:103DC00006F08FFA044610222046119901F0AAFC51
:103DD0002022574904F134000BF0EEFF0020A065CB
:103DE000E065401E606501202066606600200222BA
:103DF000CDE9012003460246014600950390FFF7F6
:103E0000BEF9208521462846FFF78EFE00BF2846D2
:103E100004B0BDE8F09F2DE9FF470646884691466D
:103E20007EB3304606F05DFA0446B4F928004A46EF
:103E30004146039BFFF7DCFA042203A904F12E009C
:103E4000FEF729FE304600F0FDF8074687B1002551
:103E50000BE0294604F12A00FEF7DAFE824605222D
:103E600000215046FEF717FE6D1CBD42F1D300BF86
:103E700021463046FFF758FE21463046FFF73AFD0F
:103E800000BFBDE8FF872DE9FC5F82460D46BAF111
:103E9000000F49D0504606F024FA044604F12A00E7
:103EA000FEF7F6FD01900422002104F12A00FEF73E
:103EB000F2FD002837D1B4F92800FFF750FB834604
:103EC000002624E004F12A000199FEF7A1FE0090EB
:103ED0000DB101CD00E000208046B8F1000F00D107
:103EE0000025404604F014FB471C3A1D00210098B1
:103EF000FEF7D1FD31460098FEF78AFE8146012F7C
:103F000004DD414609F102000BF08CFE761C5E4593
:103F1000D8DB21465046FFF707FE21465046019A5E
:103F2000FFF7FFFC00BF00BFBDE8FC9F293C000875
:103F3000380100202DE9FC4106460C461546002DAF
:103F40001BDBB4F92800FFF7F0FA07462046FFF71D
:103F500023FB80466946304603F0CEFABDF80210D6
:103F6000E06E281A00FB0870084400B2ADF80200A9
:103F70006946304602F082FA00BFBDE8FC812DE9B7
:103F8000F05F07460D46002F4AD0384606F0A9F9E3
:103F9000044604F12A00FEF77BFD81464D453ED2E2
:103FA000294604F12A00FEF733FE83465846FEF701
:103FB0006FFD824600260CE031465846FEF728FE8B
:103FC0008046B8F8000018B1B8F9000006F0E7F92B
:103FD000761C5645F0D35846FEF791FD294604F16C
:103FE0002A00FEF727FE606DA84202D14FF0FF3095
:103FF0006065606DA84202DD606D401E606521460F
:104000003846FFF791FD20B121463846FFF772FC94
:1040100004E02A4621463846FFF78CFF00BF00BF68
:10402000BDE8F09F70B5044600254CB1204606F06F
:1040300058F9064606F12E00FEF72AFD054600BF98
:10404000284670BD70B5044600254CB1204606F0E8
:1040500048F9064606F12A00FEF71AFD054600BF9C
:10406000284670BD70B504464FF0FF352CB1204690
:1040700006F037F90646756D00BF284670BD2DE97C
:10408000F05F06460F4614461D4666B33046FFF7FE
:10409000C9FFB84227D93046FFF7D4FFA04222D942
:1040A000304606F01EF98146284604F031FA00F148
:1040B0000108214609F12A00FEF7AAFD834608F10E
:1040C00004023946FEF7DEFD8246B8F1010F04DD39
:1040D00029460AF102000BF0A5FD2246494630466A
:1040E000FFF71FFC00BFBDE8F09F2DE9F041064639
:1040F0000C467EB3304606F0F4F8054605F12A007A
:10410000FEF7C6FC471EBC4200DD3C46002C01DA2F
:104110004FF0FF34686DA0421BD0D5F854806C6519
:1041200029463046FFF7DFFC20B129463046FFF72D
:10413000E1FB09E0424629463046FFF7F2FB224602
:1041400029463046FFF7EDFB0421304603F0AEFB75
:1041500000BF00BFBDE8F0812DE9FF4105460C46D8
:1041600016461F460020009001900290ADF80C60AA
:10417000ADF80E702C20009003A80290ADF8065008
:104180001CB9284603F03EFA04463CB16946204675
:1041900002F0E3FE029804B0BDE8F0810020FAE7E7
:1041A00070B505460C46B4F95C100023052228467C
:1041B000FFF7D2FF08B9012070BD0020FCE770B501
:1041C00005460C4694F85E0000F0800030B92146A8
:1041D0002846FFF7E5FF08B1002070BD0120FCE78D
:1041E00070B505460C46002621462846FFF7E7FF36
:1041F00008B1206A4669304670BD2DE9F041054698
:104200000C4600265CB1686D05F098F8074620461C
:1042100004F099FE0646384605F090F800BF304697
:10422000BDE8F0812DE9F04180460C461646606EEF
:1042300060B194F85E0000F0010038B121464046BC
:10424000FFF7CEFF616EA1EB400518E0314604F1A7
:104250005800FEF7DDFC074694F85E0000F0010010
:1042600018B9387900F0020008B9BD6800E00325EC
:1042700094F8501094F851000844054400BF2846B3
:10428000BDE8F0812DE9F04107460C461646A06EC8
:1042900060B194F85E0000F0010038B9214638465C
:1042A000FFF79EFFA16EA1EB40051BE0606D04F0DF
:1042B0009CFE054694F85E0000F0010060B13146B6
:1042C00004F15800FEF7A4FC804698F8040000F0C2
:1042D000020000B1032500BF94F8521094F8530077
:1042E000084405442846BDE8F08110B5044604F1B1
:1042F0005800FEF7CDFB10BD2DE9F04781460F4673
:104300003846FFF7F2FF8046002597F85E0000F080
:10431000010070B1002409E0224639464846FFF703
:1043200081FF0646AE4200DD3546641C4445F3D3AA
:104330000AE0002406E0224639464846FFF772FFAD
:104340000544641C4445F6D339464846FFF748FF08
:1043500005EB40052846BDE8F0872DE9F04781468A
:104360000F463846FFF7C1FF8046002597F85E00EC
:1043700000F0010058B1002406E0224639464846C4
:10438000FFF780FF0544641C4445F6D30EE000248B
:1043900009E0224639464846FFF774FF0646AE421A
:1043A00000DD3546641C4445F3D300BF394648461A
:1043B000FFF716FF05EB40052846BDE8F08770B50E
:1043C00006460C46656E25B921463046FFF794FF38
:1043D0000546284670BD70B506460C46A56E25B943
:1043E00021463046FFF7B9FF0546284670BD2DE946
:1043F000FF4F83B00C46174698464FF0FF300290AF
:1044000021460398FFF7A9FF8246A06E20B1A06E57
:10441000504501DAD4F868A021460398FFF76CFFF5
:104420008146606E20B1606E484501DAD4F8649030
:1044300021460398FFF7D4FE0646BF1BA8EB0608EB
:10444000A9EB4609AAEB460A002F38DBB8F1000FAA
:1044500035DB4F4533DAD04531DA2046FFF745FFEB
:10446000019094F85E0000F0010098B14FF0000B4D
:1044700000250AE02A4621460398FFF703FF8344FC
:10448000D84501DA029503E06D1C01988542F1D30D
:1044900000BF13E04FF0000B00250AE02A4621463A
:1044A0000398FFF7BFFE83445F4501DA029503E0FE
:1044B0006D1C01988542F1D300BF00BF00BF029878
:1044C00007B0BDE8F08F2DE9F05F834688461646B9
:1044D0001F46DDF8289041465846FFF781FE054605
:1044E00098F85E0000F0010090B14FF0000A00243F
:1044F00006E0224641465846FFF7C4FE8244641C4B
:10450000B442F6DB3D6005EB0A00C9F8000012E09A
:104510004FF0000A002406E0224641465846FFF7C5
:1045200081FE8244641CB442F6DB05EB0A0038606D
:10453000C9F8005000BFBDE8F09F70B505460C46B5
:1045400094F8600038B9284603F0E4F818B900215F
:10455000284603F002FB70BD70B505460C462846A0
:1045600003F0D8F858B121462846FFF719FE30B1BC
:1045700094F85E0000F0800008B903F0FDFA70BD09
:1045800070B506460C46154600BF00BF304601F028
:10459000A9FF70BD70B506460C4694F85E0000F0A9
:1045A000400000B394F86000E8B104F15800E16EF7
:1045B000FEF72EFB0546B5F9001000230422304615
:1045C000FFF7CAFDB5F9000002F0BCFD002084F839
:1045D000600021463046FFF7B0FF21463046E26ECC
:1045E000FFF7CEFF00BF70BD70B504460D463CB16D
:1045F000204605F076FE06460EB1A6F85C5000BFD8
:1046000070BD2DE9FE4F06460C46174694F85E0035
:1046100000F0400000287CD094F86090214630469D
:10462000FFF7B8FF394604F15800FEF7F1FA0546E6
:10463000288800287FD0287900F0010000287AD14E
:1046400021463046FFF7CCFD804601A802AB3A4632
:10465000214600903046FFF736FF94F85E0000F0E8
:10466000010090B121463046FFF746FE82462146C2
:104670003046FFF7B5FDAAEB4000029908440290CE
:104680000198A0EB0800019011E021463046FFF7A9
:1046900064FE824621463046FFF7A2FDAAEB4000A9
:1046A0000199084401900298A0EB0800029030465E
:1046B00002F082FF029908440290304602F087FF20
:1046C000019908440190B9F1000F0BD12146304601
:1046D000FFF766FD30B1B4F95C10002301223046CB
:1046E000FFF73AFD6B88B4F95C1002223046FFF701
:1046F00033FDB5F900003146FFF776FF02F090FE7A
:104700008246B5F900005146DDE9013202F05DFD57
:1047100001E011E00FE0B5F900100023032230465C
:10472000FFF71AFD012084F860003A462146304622
:10473000FFF726FF00BF00BFBDE8FE8F70B505463E
:104740000C4694F85E0000F0800050B1B4F85E00B2
:1047500020F08000A4F85E00284602F0F3FC03F08D
:104760000BFA70BD70B506460C461546E06EA842C1
:104770000AD021463046E26EFFF702FF2A46214664
:104780003046FFF7FDFEE56670BD70B506460C4687
:104790001546E06EA8420DD021463046FFF7CDFE0B
:1047A0002A4621463046FFF72CFF2A46214630464E
:1047B000FFF7D8FF70BD70B505460C4694F8600051
:1047C00048B94FF0FF3221462846FFF7CBFF21467C
:1047D0002846FFF7C1FE70BD2DE9F04107460C46A3
:1047E0001646314604F15800FEF712FA05462888AD
:1047F00070B9287900F0030050B921463846FFF718
:104800009DFF6B88B4F95C1000223846FFF7A4FCCA
:10481000BDE8F0812DE9F04107460C46154694F8B5
:104820005E0000F00200A0BB294604F15800FEF72C
:10483000EFF90646308858B3307900F0010038BBF4
:1048400094F85E0000F0400080B9B4F85E0040F0DB
:104850004000A4F85E002A4621463846FFF7D1FE04
:104860002A4621463846FFF77DFF11E094F85E00A6
:1048700000F0040060B1E06EA84209D1214638463C
:10488000FFF788FEB4F85E0020F04000A4F85E0058
:1048900000BFBDE8F08170B505460C4621462846AC
:1048A000FFF778FE94F85E0000F0020028B9B4F833
:1048B0005E0020F04000A4F85E0070BD10B5044614
:1048C000002010BD2DE9F04786B081460F46154601
:1048D0001E460E9C4FF0000A03A803F031F8002D8D
:1048E00010DB002E0EDB01A9384601F0B4FDBDF946
:1048F0000800A84205DBBDF90A00B04201DB4FF019
:10490000010A00BFBAF1000F50D033462A4639469B
:104910004846FFF76CFD8046B8F1000F2EDB012CF6
:104920000DD19DF8140020B9424639464846FFF79C
:1049300071FF424639464846FFF727FF32E04CB93F
:104940009DF81400012805D1424639464846FFF734
:1049500043FF27E0002C25DA33462A4639464846ED
:10496000FFF7ACFF28B9424639464846FFF70DFF2E
:1049700018E039464846FFF71EFF13E0012C0BD123
:104980009DF8140018B939464846FFF784FF3946A8
:104990004846FFF710FF05E0002C03DA3946484689
:1049A000FFF709FF002006B0BDE8F087012C0AD10F
:1049B0009DF8140038B939464846FFF76CFF394670
:1049C0004846FFF7BBFE39464846FFF7F4FE33463C
:1049D0002A4639464846FFF771FF0120E3E72DE9F3
:1049E000F04780460E46144631464046FFF7D8FB56
:1049F00058BBB6F85C0010B1B6F95C0002E0404666
:104A000002F000FE0746FFB1A068C8B1A5684046A5
:104A100002F0D2FD8146384602F0CEFDA9EB00003F
:104A2000296808442860404602F0D1FD8146384696
:104A300002F0CDFDA9EB000069680844686000BF82
:104A40002146384602F089FA00BFBDE8F0872DE91B
:104A5000F04104460D4629462046FFF7B0FC0646C5
:104A600029462046FFF7B7FC07463A46314620461E
:104A700003F0B2F9204601F035FDBDE8F0812DE9E3
:104A8000F04106460C461546AF68002F46D03888E0
:104A9000062842D2DFE800F003101124393E2146F7
:104AA0003046FFF7F8FE21463046FFF784FE2146E8
:104AB0003046FFF743FE00BF00BFB4F85C0010B102
:104AC000B4F95C0002E0304602F09CFD8046B8F18B
:104AD000000F04D0EE802946404602F03EFA1CE06A
:104AE0004FF0FF30E066002084F86000B4F85E000C
:104AF00040F04200A4F85E0021463046FFF71DFD5D
:104B000021463046FFF7A3FF07E021463046FFF776
:104B100041FD02E00120A86000BF00BFBDE8F081B8
:104B2000F8B506460F461546AC6844B1207A0090A9
:104B300039463046D4E90023FFF7C4FEF8BD4FF0F4
:104B4000FF3003460246394600903046FFF7BAFE72
:104B5000F4E72DE9F04104460E461746E06EB842F0
:104B600001D1012000E00020804694F8600020B1CF
:104B7000B8F1000F01D0042518E0307900F00200F0
:104B800008B1002512E0B8F1000F01D0012000E0CB
:104B900000200546307900F0010038B194F85E003D
:104BA00000F0080008B1022500E0AD1C04F13C0152
:104BB00051F8250004F08CFB04F1280151F8250080
:104BC00004F08CFBBDE8F0812DE9F34F89B00C4671
:104BD00094F8509094F852A0606D04F006FA039097
:104BE00021460998FFF7FCFA07462046FFF77DFBB0
:104BF000049007A9204601F02EFC3A4607A907A811
:104C000003F024FC606D04F099FB94F85E0000F062
:104C1000010000286AD021460998FFF76DFB029039
:104C20000298C01B401E00B2ADF82000BDF81C0069
:104C3000484400B2ADF81400002653E0314604F1B8
:104C40005800FDF7E5FF0546324621460998FFF773
:104C500019FB8346324629462046FFF77AFFBDF806
:104C60001E005844401E00B2ADF82200287900F022
:104C7000020090B107A803F087FCFE4804F02EFB69
:104C8000BDF920309A1EBDF91C30991CBDF91E30AB
:104C90005344581C03F086FE1DE0D5F80880BDF88B
:104CA00014004044401E00B2ADF81800BDF81E00CC
:104CB000504400B2ADF81600BDF816100398084431
:104CC000401E00B2ADF81A0005AB05AA07A905F110
:104CD0000C0000F0BDFFBDF81E00584400B2ADF856
:104CE0001E00761C04988642A8D36AE021460998E3
:104CF000FFF733FB02900298C01B401E00B2ADF8D4
:104D00002200BDF81E00504400B2ADF81600BDF8F8
:104D1000161003980844401E00B2ADF81A00002691
:104D20004BE0314604F15800FDF772FF054632466C
:104D300021460998FFF776FA8346324629462046EF
:104D4000FFF707FFBDF81C005844401E00B2ADF845
:104D50002000287900F0020090B107A803F014FCAD
:104D6000C44804F0BBFABDF922309A1EBDF91E30CA
:104D7000991CBDF91C304B44581C03F03FFE15E054
:104D8000D5F80880BDF81C00484400B2ADF8140006
:104D9000BDF814004044401E00B2ADF8180005AB49
:104DA00005AA07A905F10C0000F052FFBDF81C0090
:104DB000584400B2ADF81C00761C04988642B0D36B
:104DC00000BF606E08B9A06E00B301A9204601F0D3
:104DD00042FB3A4601A901A803F038FBE06B04F05E
:104DE00077FABDF92230BDF90820BDF92010481C22
:104DF000394606F023F8BDF90A30BDF90820BDF99F
:104E00002200411C384606F019F800BF21460998D7
:104E1000FFF7D5F910B1216A086880470BB0BDE8EB
:104E2000F08F70B50446B4F904602068112805D0ED
:104E30002146304600F07DFC00B970BD304605F0DB
:104E400050FA054620680B281CD00C2809D00F28E2
:104E500013D02C281BD1224629463046FFF70FFEDF
:104E6000EBE7224629463046FFF75AFE20B122469C
:104E700029463046FFF7B3FD09E029463046FFF7E3
:104E8000A3FE04E005F15800FDF739FE00BF00BFA6
:104E9000204601F003FF00BFCFE72DE9FF5F814609
:104EA0008A4616461F46DDF838B0109D5021724ADA
:104EB0000F9880B240F00A003B46CDE900B0CDE942
:104EC000022132465146484601F013FB8046B8F1B4
:104ED000000F32D0404605F004FA04461022204666
:104EE000119900F01FFC05F0020010B145F04005DB
:104EF00001E025F040053022604904F128000AF065
:104F00005BFFA4F85E50002E01DD304600E000207B
:104F10006066002F01DD384600E00020A0664FF0FB
:104F2000FF30E0660020A4F85C0084F8600054487C
:104F30000168404600F01CFF00BF404604B0BDE8D9
:104F4000F09F2DE9F04104462046FFF7CEF9804658
:104F5000606D04F0F3F9074600260BE0314604F1DA
:104F60005800FDF755FE054605F10C0003F0EBFF78
:104F7000A860761C4645F1D3384604F0DFF9BDE859
:104F8000F0812DE9FF4707460D4690461C4600205C
:104F90000090019002900390266806B939A6A08877
:104FA000ADF80200E088ADF804002089ADF80000FB
:104FB00031462846FFF721F90290BDF8040000F0C1
:104FC000020010B10020ADF8000030460AF04EFE9D
:104FD00000F110094B466A46414605F15800FDF7BD
:104FE000C6FD98B1414605F15800FDF711FE814616
:104FF000314609F10C000AF015FEBDF900003946F2
:10500000FFF7F2FA012004B0BDE8F0870020FAE7CC
:105010002DE9F0410546884616461F46414605F1F2
:105020005800FDF7F5FD0446A088B043A080A08895
:105030003843A080BDE8F0812DE9F04106460D46D9
:1050400076B36DB3304605F04CF904463CB300220C
:10505000114604F15800FDF71EFD00BB2046FFF786
:1050600044F9471E2B463A4621463046FFF789FF52
:1050700080B909E07C7C7C00234E000858010020A8
:105080008801002000000000394604F15800FDF7B7
:10509000D1FD03E021463046FFF7D9FC00BF00BF39
:1050A000BDE8F0812DE9FF4704460D4616461F4630
:1050B000DDF8308000BFB4F90800618A0022CDE934
:1050C0000052CDE90210B4F91030B4F90E20B4F951
:1050D0000CC00CEB0701B4F90AC00CEB0600FFF79B
:1050E000DCFE8146484604B0BDE8F0872DE9F0417A
:1050F0000446B4F9045020680E280AD01E2802D0B5
:1051000026282CD11AE06FF07F412846FDF7AEFC2F
:1051100029E0A0680668A068406870B10D2E06D02E
:105120001B2E09D101212846FCF785FA04E0002155
:105130002846FCF780FA00BF00BF14E0A668B4F967
:10514000060002F0B8F90746022E06D1012F03D15E
:1051500000212846FCF76FFA00BF00BF03E020469D
:1051600001F09CFD00BF00BFBDE8F0812DE9F74FC5
:105170009AB081468A46FDF71FFC0446600000F1A4
:105180003A05482108A80AF051FE00F06DF9019097
:1051900004F0D4F80290FF22494603A803F0DEFE93
:1051A000BDF91000BDF90C10401A00F10807BDF957
:1051B0001200BDF90E10401A00F1010B07F10C00AE
:1051C000854200DA0546FDF7D2FB019003F008FFA7
:1051D00005900BF11401059808440C3000EB4400D5
:1051E000461C504603F0AFFE804608EB4400A84240
:1051F00001DD08EB440506F099FDA84202DA06F04D
:1052000095FD054606F095FDB04202DA06F091FDE7
:10521000064606F08BFD401B019000EBD07040105D
:10522000079006F086FD801B019000EBD0704010C7
:105230000690029804F082F833480890CDF824A034
:10524000079800B2ADF82A00069800B2ADF82C001D
:1052500028B2ADF82E0030B2ADF830001C9800F046
:10526000100010B11020ADF8320028480E90CDF893
:105270003C90E91BA1EB440000EBD07149100AB24D
:1052800008A94A84042108A8818439B2C1840FFA8C
:105290008BF10185022113911D4814901DA11591D8
:1052A000012108A80187A5F13201A1EB440000EB20
:1052B000D07149100AB208A94A870BF1080001B25F
:1052C00008A881873221C1871421ADF86010002021
:1052D00000900346104A0321019008A8FCF76FF9DB
:1052E0001DB0BDE8F08F2DE9F04104460D4616468D
:1052F000324629462046FFF739FF07463846FCF775
:10530000A9F9BDE8F0810000192900087D540008C2
:10531000251500084F4B0000ED50000810B504465D
:1053200004F1280005F044F810BD7CB505460C4694
:1053300000BF606B06F039FCE06A03F0FFFF28460F
:1053400002F09CFD20B9A06B06F020FC05F0B0FD3A
:10535000208D80B1B4F9280004F0C3FF0646022076
:1053600004F006F8684602F037F8B4F930206946D0
:10537000304603F0A6FA7CBD10B504462046FFF780
:10538000CDFF10BD70B50446B4F90450284604F0B2
:10539000A8FF06462146284600F0CBF900B970BDAB
:1053A00020680B2806D00F2808D131462846FFF781
:1053B000BCFFF4E73046FFF7DFFF00BF00BF204629
:1053C00001F06CFC00BFEAE72DE9FF4F85B0814694
:1053D0008A469346139F169D47F001071C22244BD3
:1053E000B8B21299CDE90232CDE900105A465146C1
:1053F0004846089B01F07DF88046B8F1000F29D09F
:105400000026404604F06DFF044600222046159910
:1054100000F088F985B128460AF028FC401C00B24B
:10542000049003F0A0F8064636B1304604F059FF68
:10543000294604900AF0F6FB2685149800B22086CF
:105440000C480068E0626FF07040A0630A48006892
:10545000606300BF404609B0BDE8F08F05490860B1
:1054600070470549086070470248006870470000AF
:10547000855300088C010020900100202DE9F043A5
:1054800085B004460D4616461F46DDF8308000BF45
:10549000B4F90800628A02236168CDE90053CDE9BE
:1054A00002200491B4F91030B4F90E20B4F90CC004
:1054B0000CEB0701B4F90AC00CEB0600FFF784FF00
:1054C0008146484605B0BDE8F08370B504460D46F8
:1054D0004CB1204604F005FF064628B2308620462F
:1054E00001F000F800BF70BD70B504460D4644B130
:1054F000204604F0F6FE06467563204600F0F2FFF3
:1055000000BF70BDF8B505460C46284604F0E9FE1C
:1055100006462346624261423046009401F04FFD48
:10552000F8BD7CB506460C46306A4569B068009007
:10553000F06801906946304600F0A1FCB4F9000023
:105540002844BDF90010884201DD01207CBDB4F97A
:105550000400401BBDF90410884201DA0120F5E780
:10556000B4F902002844BDF90210884201DD01208F
:10557000ECE7B4F90600401BBDF90610884201DAD9
:105580000120E3E70020E1E7F0B5B2F90050B2F9FD
:105590000430B0F90460B0F90070F41BD688A61B83
:1055A00036B20E805688A61B36B28E804D80CB80D8
:1055B000F0BD7CB505460C4695F8260000F00800C5
:1055C00078B1684601F008FFBDF802002080BDF800
:1055D0000600A080BDF800006080BDF80400E080F7
:1055E00002E0204601F0F8FE7CBD70B50546284675
:1055F00002F008F8064601F0D3FE04466FF0704052
:10560000844202D1FBF7B6FF0446204670BD70B558
:1056100004460D462946204600F01DFF206A294613
:105620004269284602F012FF70BD014691F826003B
:1056300000F0080028B1B1F90600B1F90230C21A31
:1056400004E0B1F90400B1F90030C21A501C7047EF
:10565000014691F8260000F0080028B1B1F90400D5
:10566000B1F90030C21A04E0B1F90600B1F9023014
:10567000C21A501C704770B50446204604F031FE33
:10568000054695F8260000F0080018B1204602F003
:1056900031F870BD204602F01DF8FAE770B50646F5
:1056A0000C46304604F01DFE0546E88CA04203D0AF
:1056B000EC84304600F016FF70BD70B5054600263C
:1056C00025B1284604F00DFE0446E68C304670BD38
:1056D00070B506460C4676B1304604F002FE05462B
:1056E000E88C2040A04205D0E88C2043E884304676
:1056F00000F0F8FE00BF70BD2DE9F04106460F46F0
:1057000076B1304604F0EDFD0546E88C20EA07044A
:10571000E88CA04203D0EC84304600F0E3FE00BFEA
:10572000BDE8F0819A4B1B680362C2840BB283848C
:1057300070472DE9F04781460C46484604F0D1FDFC
:1057400005462068162845D008DC0D2832D01128DF
:1057500021D0142863D0152867D117E01F283ED028
:10576000202855D0B0F5407F5FD1286A4769A068EE
:105770002862286A40693F1A39464846FFF7C2FE48
:10578000484600F0AFFE0020BDE8F087B5F92400E0
:10579000A0600020F8E795F8260000F0100040B166
:1057A000D4F8088098F8080010B1484602F06AFA68
:1057B00000BF3AE0D4F808A0DAF80880B8F1000F8A
:1057C00007D098F8080020B1484601F072FD00208B
:1057D000DAE72AE0208900B2A8840020D4E7A06894
:1057E000012807D1E88C40F001014846FFF756FF39
:1057F000082606E0E88C20F001014846FFF74EFF3E
:1058000009263146484602F051F80020A060BBE767
:1058100095F82600C0F30010A0600020B4E72846E9
:10582000A168FFF7F4FE0020AEE700BF0120ABE760
:105830002DE9F04105460E461446FE21284601F0AA
:105840001AFE07463146384602F0B8FAFF212846CC
:1058500001F011FE07462146384602F0AFFABDE8D6
:10586000F0817CB506460C46154696F8260000F0F9
:10587000080028B1224669463046FFF785FE6C468F
:105880002946204603F053F87CBD2DE9FF41074629
:105890000C4615461E4697F8260000F00800C8B1D1
:1058A00020B2ADF8080020B2ADF80C0028B2ADF877
:1058B0000A0030B2ADF80E0002AA69463846FFF77A
:1058C00063FEBDF90420BDF90010BDF9020003F02C
:1058D00069F804E032462946204603F08FF8BDE817
:1058E000FF817CB505460C4695F8260000F00800BF
:1058F00030B1224669462846FFF746FE6C4600BF97
:10590000204603F091FA7CBD7CB505460C461CB9D7
:10591000684601F061FD6C4695F8260000F008002D
:1059200028B1224669462846FFF72EFE6C462146DE
:105930002846FFF7F6FD18B1286AC1682046884757
:105940007CBD10B5044600212046FFF7DDFF10BDE9
:105950007CB504460D4694F8260000F0080028B1F6
:105960002A4669462046FFF70FFE6D462946204627
:10597000FFF7D7FD18B1206A8168284688477CBDAB
:105980000146034A1068116070470148006870477B
:10599000940100207CB50446206800906068019066
:1059A000002006F002F9BDF90630BDF90420BDF96A
:1059B0000210BDF9000004F090FA6FF07F4006F08D
:1059C000F4F8BDF904309A1EBDF90030591CBDF938
:1059D0000230581C02F0E6FFBDF906309A1EBDF9F0
:1059E0000230591CBDF90030581C03F007F850482C
:1059F00006F0DBF8BDF904305A1EBDF90030591C21
:105A0000BDF90630581E02F0CDFFBDF906309A1ED2
:105A1000BDF90230591CBDF90430581E02F0EEFFEA
:105A20007CBD1CB504462068009060680190002091
:105A300006F0BBF83F4806F0B8F8BDF90420BDF900
:105A40000010BDF9020002F0ADFFBDF90620BDF95E
:105A50000230591CBDF9000002F0D0FF002006F012
:105A6000A4F8BDF904305A1EBDF90030591CBDF927
:105A70000230581C02F096FFBDF906305A1EBDF9DF
:105A80000230991CBDF90030581C02F0B7FF6FF0CE
:105A90007F4006F08AF8BDF90420BDF90030591C9A
:105AA000BDF9060002F07EFFBDF90620BDF9023007
:105AB000591CBDF9040002F0A1FF1F4806F075F85B
:105AC000BDF904305A1EBDF90030991CBDF90630ED
:105AD000581E02F067FFBDF906305A1EBDF90230AC
